{
	"01-NewFeaturesForSolidity8.0/test1.sol": {
		"SafeMath": {
			"abi": [
				{
					"inputs": [],
					"name": "uintUncheckedUnderFlow",
					"outputs": [
						{
							"internalType": "uint256",
							"name": "",
							"type": "uint256"
						}
					],
					"stateMutability": "pure",
					"type": "function"
				},
				{
					"inputs": [],
					"name": "uintUnderFlow",
					"outputs": [
						{
							"internalType": "uint256",
							"name": "",
							"type": "uint256"
						}
					],
					"stateMutability": "pure",
					"type": "function"
				}
			],
			"devdoc": {
				"kind": "dev",
				"methods": {},
				"version": 1
			},
			"evm": {
				"assembly": "    /* \"01-NewFeaturesForSolidity8.0/test1.sol\":70:523  contract SafeMath{... */\n  mstore(0x40, 0x80)\n  callvalue\n  dup1\n  iszero\n  tag_1\n  jumpi\n  0x00\n  dup1\n  revert\ntag_1:\n  pop\n  dataSize(sub_0)\n  dup1\n  dataOffset(sub_0)\n  0x00\n  codecopy\n  0x00\n  return\nstop\n\nsub_0: assembly {\n        /* \"01-NewFeaturesForSolidity8.0/test1.sol\":70:523  contract SafeMath{... */\n      mstore(0x40, 0x80)\n      callvalue\n      dup1\n      iszero\n      tag_1\n      jumpi\n      0x00\n      dup1\n      revert\n    tag_1:\n      pop\n      jumpi(tag_2, lt(calldatasize, 0x04))\n      shr(0xe0, calldataload(0x00))\n      dup1\n      0x5a5c38ba\n      eq\n      tag_3\n      jumpi\n      dup1\n      0xb83ebcdd\n      eq\n      tag_4\n      jumpi\n    tag_2:\n      0x00\n      dup1\n      revert\n        /* \"01-NewFeaturesForSolidity8.0/test1.sol\":93:365  function uintUnderFlow() public pure returns(uint){... */\n    tag_3:\n      tag_5\n      tag_6\n      jump\t// in\n    tag_5:\n      mload(0x40)\n      tag_7\n      swap2\n      swap1\n      tag_8\n      jump\t// in\n    tag_7:\n      mload(0x40)\n      dup1\n      swap2\n      sub\n      swap1\n      return\n        /* \"01-NewFeaturesForSolidity8.0/test1.sol\":371:521  function uintUncheckedUnderFlow() public pure returns(uint){... */\n    tag_4:\n      tag_9\n      tag_10\n      jump\t// in\n    tag_9:\n      mload(0x40)\n      tag_11\n      swap2\n      swap1\n      tag_8\n      jump\t// in\n    tag_11:\n      mload(0x40)\n      dup1\n      swap2\n      sub\n      swap1\n      return\n        /* \"01-NewFeaturesForSolidity8.0/test1.sol\":93:365  function uintUnderFlow() public pure returns(uint){... */\n    tag_6:\n        /* \"01-NewFeaturesForSolidity8.0/test1.sol\":138:142  uint */\n      0x00\n        /* \"01-NewFeaturesForSolidity8.0/test1.sol\":153:159  uint x */\n      dup1\n        /* \"01-NewFeaturesForSolidity8.0/test1.sol\":162:163  0 */\n      0x00\n        /* \"01-NewFeaturesForSolidity8.0/test1.sol\":153:163  uint x = 0 */\n      swap1\n      pop\n        /* \"01-NewFeaturesForSolidity8.0/test1.sol\":173:176  x-- */\n      dup1\n      dup1\n      tag_13\n      swap1\n      tag_14\n      jump\t// in\n    tag_13:\n      swap2\n      pop\n      pop\n        /* \"01-NewFeaturesForSolidity8.0/test1.sol\":357:358  x */\n      dup1\n        /* \"01-NewFeaturesForSolidity8.0/test1.sol\":350:358  return x */\n      swap2\n      pop\n      pop\n        /* \"01-NewFeaturesForSolidity8.0/test1.sol\":93:365  function uintUnderFlow() public pure returns(uint){... */\n      swap1\n      jump\t// out\n        /* \"01-NewFeaturesForSolidity8.0/test1.sol\":371:521  function uintUncheckedUnderFlow() public pure returns(uint){... */\n    tag_10:\n        /* \"01-NewFeaturesForSolidity8.0/test1.sol\":425:429  uint */\n      0x00\n        /* \"01-NewFeaturesForSolidity8.0/test1.sol\":440:446  uint x */\n      dup1\n        /* \"01-NewFeaturesForSolidity8.0/test1.sol\":449:450  0 */\n      0x00\n        /* \"01-NewFeaturesForSolidity8.0/test1.sol\":440:450  uint x = 0 */\n      swap1\n      pop\n        /* \"01-NewFeaturesForSolidity8.0/test1.sol\":483:486  x-- */\n      dup1\n      dup1\n      0x01\n      swap1\n      sub\n      swap2\n      pop\n      pop\n        /* \"01-NewFeaturesForSolidity8.0/test1.sol\":513:514  x */\n      dup1\n        /* \"01-NewFeaturesForSolidity8.0/test1.sol\":506:514  return x */\n      swap2\n      pop\n      pop\n        /* \"01-NewFeaturesForSolidity8.0/test1.sol\":371:521  function uintUncheckedUnderFlow() public pure returns(uint){... */\n      swap1\n      jump\t// out\n        /* \"#utility.yul\":7:84   */\n    tag_16:\n        /* \"#utility.yul\":44:51   */\n      0x00\n        /* \"#utility.yul\":73:78   */\n      dup2\n        /* \"#utility.yul\":62:78   */\n      swap1\n      pop\n        /* \"#utility.yul\":7:84   */\n      swap2\n      swap1\n      pop\n      jump\t// out\n        /* \"#utility.yul\":90:208   */\n    tag_17:\n        /* \"#utility.yul\":177:201   */\n      tag_22\n        /* \"#utility.yul\":195:200   */\n      dup2\n        /* \"#utility.yul\":177:201   */\n      tag_16\n      jump\t// in\n    tag_22:\n        /* \"#utility.yul\":172:175   */\n      dup3\n        /* \"#utility.yul\":165:202   */\n      mstore\n        /* \"#utility.yul\":90:208   */\n      pop\n      pop\n      jump\t// out\n        /* \"#utility.yul\":214:436   */\n    tag_8:\n        /* \"#utility.yul\":307:311   */\n      0x00\n        /* \"#utility.yul\":345:347   */\n      0x20\n        /* \"#utility.yul\":334:343   */\n      dup3\n        /* \"#utility.yul\":330:348   */\n      add\n        /* \"#utility.yul\":322:348   */\n      swap1\n      pop\n        /* \"#utility.yul\":358:429   */\n      tag_24\n        /* \"#utility.yul\":426:427   */\n      0x00\n        /* \"#utility.yul\":415:424   */\n      dup4\n        /* \"#utility.yul\":411:428   */\n      add\n        /* \"#utility.yul\":402:408   */\n      dup5\n        /* \"#utility.yul\":358:429   */\n      tag_17\n      jump\t// in\n    tag_24:\n        /* \"#utility.yul\":214:436   */\n      swap3\n      swap2\n      pop\n      pop\n      jump\t// out\n        /* \"#utility.yul\":442:622   */\n    tag_18:\n        /* \"#utility.yul\":490:567   */\n      0x4e487b7100000000000000000000000000000000000000000000000000000000\n        /* \"#utility.yul\":487:488   */\n      0x00\n        /* \"#utility.yul\":480:568   */\n      mstore\n        /* \"#utility.yul\":587:591   */\n      0x11\n        /* \"#utility.yul\":584:585   */\n      0x04\n        /* \"#utility.yul\":577:592   */\n      mstore\n        /* \"#utility.yul\":611:615   */\n      0x24\n        /* \"#utility.yul\":608:609   */\n      0x00\n        /* \"#utility.yul\":601:616   */\n      revert\n        /* \"#utility.yul\":628:799   */\n    tag_14:\n        /* \"#utility.yul\":667:670   */\n      0x00\n        /* \"#utility.yul\":690:714   */\n      tag_27\n        /* \"#utility.yul\":708:713   */\n      dup3\n        /* \"#utility.yul\":690:714   */\n      tag_16\n      jump\t// in\n    tag_27:\n        /* \"#utility.yul\":681:714   */\n      swap2\n      pop\n        /* \"#utility.yul\":736:740   */\n      0x00\n        /* \"#utility.yul\":729:734   */\n      dup3\n        /* \"#utility.yul\":726:741   */\n      sub\n        /* \"#utility.yul\":723:764   */\n      tag_28\n      jumpi\n        /* \"#utility.yul\":744:762   */\n      tag_29\n      tag_18\n      jump\t// in\n    tag_29:\n        /* \"#utility.yul\":723:764   */\n    tag_28:\n        /* \"#utility.yul\":791:792   */\n      0x01\n        /* \"#utility.yul\":784:789   */\n      dup3\n        /* \"#utility.yul\":780:793   */\n      sub\n        /* \"#utility.yul\":773:793   */\n      swap1\n      pop\n        /* \"#utility.yul\":628:799   */\n      swap2\n      swap1\n      pop\n      jump\t// out\n\n    auxdata: 0xa26469706673582212208bb0d2e40414ecbae43da8f80c020bb361e8e663d9dc3bb40550538f7c79bd5c64736f6c63430008180033\n}\n",
				"bytecode": {
					"linkReferences": {},
					"object": "608060405234801561000f575f80fd5b5061015e8061001d5f395ff3fe608060405234801561000f575f80fd5b5060043610610034575f3560e01c80635a5c38ba14610038578063b83ebcdd14610056575b5f80fd5b610040610074565b60405161004d91906100bb565b60405180910390f35b61005e61008e565b60405161006b91906100bb565b60405180910390f35b5f805f9050808061008490610101565b9150508091505090565b5f805f90508080600190039150508091505090565b5f819050919050565b6100b5816100a3565b82525050565b5f6020820190506100ce5f8301846100ac565b92915050565b7f4e487b71000000000000000000000000000000000000000000000000000000005f52601160045260245ffd5b5f61010b826100a3565b91505f820361011d5761011c6100d4565b5b60018203905091905056fea26469706673582212208bb0d2e40414ecbae43da8f80c020bb361e8e663d9dc3bb40550538f7c79bd5c64736f6c63430008180033",
					"opcodes": "PUSH1 0x80 PUSH1 0x40 MSTORE CALLVALUE DUP1 ISZERO PUSH2 0xF JUMPI PUSH0 DUP1 REVERT JUMPDEST POP PUSH2 0x15E DUP1 PUSH2 0x1D PUSH0 CODECOPY PUSH0 RETURN INVALID PUSH1 0x80 PUSH1 0x40 MSTORE CALLVALUE DUP1 ISZERO PUSH2 0xF JUMPI PUSH0 DUP1 REVERT JUMPDEST POP PUSH1 0x4 CALLDATASIZE LT PUSH2 0x34 JUMPI PUSH0 CALLDATALOAD PUSH1 0xE0 SHR DUP1 PUSH4 0x5A5C38BA EQ PUSH2 0x38 JUMPI DUP1 PUSH4 0xB83EBCDD EQ PUSH2 0x56 JUMPI JUMPDEST PUSH0 DUP1 REVERT JUMPDEST PUSH2 0x40 PUSH2 0x74 JUMP JUMPDEST PUSH1 0x40 MLOAD PUSH2 0x4D SWAP2 SWAP1 PUSH2 0xBB JUMP JUMPDEST PUSH1 0x40 MLOAD DUP1 SWAP2 SUB SWAP1 RETURN JUMPDEST PUSH2 0x5E PUSH2 0x8E JUMP JUMPDEST PUSH1 0x40 MLOAD PUSH2 0x6B SWAP2 SWAP1 PUSH2 0xBB JUMP JUMPDEST PUSH1 0x40 MLOAD DUP1 SWAP2 SUB SWAP1 RETURN JUMPDEST PUSH0 DUP1 PUSH0 SWAP1 POP DUP1 DUP1 PUSH2 0x84 SWAP1 PUSH2 0x101 JUMP JUMPDEST SWAP2 POP POP DUP1 SWAP2 POP POP SWAP1 JUMP JUMPDEST PUSH0 DUP1 PUSH0 SWAP1 POP DUP1 DUP1 PUSH1 0x1 SWAP1 SUB SWAP2 POP POP DUP1 SWAP2 POP POP SWAP1 JUMP JUMPDEST PUSH0 DUP2 SWAP1 POP SWAP2 SWAP1 POP JUMP JUMPDEST PUSH2 0xB5 DUP2 PUSH2 0xA3 JUMP JUMPDEST DUP3 MSTORE POP POP JUMP JUMPDEST PUSH0 PUSH1 0x20 DUP3 ADD SWAP1 POP PUSH2 0xCE PUSH0 DUP4 ADD DUP5 PUSH2 0xAC JUMP JUMPDEST SWAP3 SWAP2 POP POP JUMP JUMPDEST PUSH32 0x4E487B7100000000000000000000000000000000000000000000000000000000 PUSH0 MSTORE PUSH1 0x11 PUSH1 0x4 MSTORE PUSH1 0x24 PUSH0 REVERT JUMPDEST PUSH0 PUSH2 0x10B DUP3 PUSH2 0xA3 JUMP JUMPDEST SWAP2 POP PUSH0 DUP3 SUB PUSH2 0x11D JUMPI PUSH2 0x11C PUSH2 0xD4 JUMP JUMPDEST JUMPDEST PUSH1 0x1 DUP3 SUB SWAP1 POP SWAP2 SWAP1 POP JUMP INVALID LOG2 PUSH5 0x6970667358 0x22 SLT KECCAK256 DUP12 0xB0 0xD2 0xE4 DIV EQ 0xEC 0xBA 0xE4 RETURNDATASIZE 0xA8 0xF8 0xC MUL SIGNEXTEND 0xB3 PUSH2 0xE8E6 PUSH4 0xD9DC3BB4 SDIV POP MSTORE8 DUP16 PUSH29 0x79BD5C64736F6C63430008180033000000000000000000000000000000 "
				},
				"gasEstimates": {
					"creation": {
						"codeDepositCost": "70000",
						"executionCost": "115",
						"totalCost": "70115"
					},
					"external": {
						"uintUncheckedUnderFlow()": "366",
						"uintUnderFlow()": "258"
					}
				},
				"methodIdentifiers": {
					"uintUncheckedUnderFlow()": "b83ebcdd",
					"uintUnderFlow()": "5a5c38ba"
				}
			},
			"storageLayout": {
				"storage": [],
				"types": null
			},
			"userdoc": {
				"kind": "user",
				"methods": {},
				"version": 1
			}
		}
	}
}