{
	"01-NewFeaturesForSolidity8.0/04-Import.sol": {
		"Import": {
			"abi": [
				{
					"inputs": [
						{
							"internalType": "uint256",
							"name": "a",
							"type": "uint256"
						}
					],
					"name": "pow2",
					"outputs": [
						{
							"internalType": "uint256",
							"name": "",
							"type": "uint256"
						}
					],
					"stateMutability": "pure",
					"type": "function"
				},
				{
					"inputs": [],
					"name": "test1",
					"outputs": [
						{
							"internalType": "uint256",
							"name": "x",
							"type": "uint256"
						}
					],
					"stateMutability": "nonpayable",
					"type": "function"
				},
				{
					"inputs": [],
					"name": "test2",
					"outputs": [
						{
							"internalType": "uint256",
							"name": "x",
							"type": "uint256"
						}
					],
					"stateMutability": "nonpayable",
					"type": "function"
				}
			],
			"devdoc": {
				"kind": "dev",
				"methods": {},
				"version": 1
			},
			"evm": {
				"assembly": "    /* \"01-NewFeaturesForSolidity8.0/04-Import.sol\":118:571  contract Import{... */\n  mstore(0x40, 0x80)\n  callvalue\n  dup1\n  iszero\n  tag_1\n  jumpi\n  0x00\n  dup1\n  revert\ntag_1:\n  pop\n  dataSize(sub_0)\n  dup1\n  dataOffset(sub_0)\n  0x00\n  codecopy\n  0x00\n  return\nstop\n\nsub_0: assembly {\n        /* \"01-NewFeaturesForSolidity8.0/04-Import.sol\":118:571  contract Import{... */\n      mstore(0x40, 0x80)\n      callvalue\n      dup1\n      iszero\n      tag_1\n      jumpi\n      0x00\n      dup1\n      revert\n    tag_1:\n      pop\n      jumpi(tag_2, lt(calldatasize, 0x04))\n      shr(0xe0, calldataload(0x00))\n      dup1\n      0x442b7ffb\n      eq\n      tag_3\n      jumpi\n      dup1\n      0x66e41cb7\n      eq\n      tag_4\n      jumpi\n      dup1\n      0x6b59084d\n      eq\n      tag_5\n      jumpi\n    tag_2:\n      0x00\n      dup1\n      revert\n        /* \"01-NewFeaturesForSolidity8.0/04-Import.sol\":340:423  function pow2(uint256 a) public pure returns(uint){... */\n    tag_3:\n      tag_6\n      0x04\n      dup1\n      calldatasize\n      sub\n      dup2\n      add\n      swap1\n      tag_7\n      swap2\n      swap1\n      tag_8\n      jump\t// in\n    tag_7:\n      tag_9\n      jump\t// in\n    tag_6:\n      mload(0x40)\n      tag_10\n      swap2\n      swap1\n      tag_11\n      jump\t// in\n    tag_10:\n      mload(0x40)\n      dup1\n      swap2\n      sub\n      swap1\n      return\n        /* \"01-NewFeaturesForSolidity8.0/04-Import.sol\":502:569  function test2() public returns(uint x){... */\n    tag_4:\n      tag_12\n      tag_13\n      jump\t// in\n    tag_12:\n      mload(0x40)\n      tag_14\n      swap2\n      swap1\n      tag_11\n      jump\t// in\n    tag_14:\n      mload(0x40)\n      dup1\n      swap2\n      sub\n      swap1\n      return\n        /* \"01-NewFeaturesForSolidity8.0/04-Import.sol\":429:496  function test1() public returns(uint x){... */\n    tag_5:\n      tag_15\n      tag_16\n      jump\t// in\n    tag_15:\n      mload(0x40)\n      tag_17\n      swap2\n      swap1\n      tag_11\n      jump\t// in\n    tag_17:\n      mload(0x40)\n      dup1\n      swap2\n      sub\n      swap1\n      return\n        /* \"01-NewFeaturesForSolidity8.0/04-Import.sol\":340:423  function pow2(uint256 a) public pure returns(uint){... */\n    tag_9:\n        /* \"01-NewFeaturesForSolidity8.0/04-Import.sol\":385:389  uint */\n      0x00\n        /* \"01-NewFeaturesForSolidity8.0/04-Import.sol\":415:416  a */\n      dup2\n        /* \"01-NewFeaturesForSolidity8.0/04-Import.sol\":411:412  a */\n      dup3\n        /* \"01-NewFeaturesForSolidity8.0/04-Import.sol\":407:408  a */\n      dup4\n        /* \"01-NewFeaturesForSolidity8.0/04-Import.sol\":407:412  a * a */\n      tag_19\n      swap2\n      swap1\n      tag_20\n      jump\t// in\n    tag_19:\n        /* \"01-NewFeaturesForSolidity8.0/04-Import.sol\":407:416  a * a * a */\n      tag_21\n      swap2\n      swap1\n      tag_20\n      jump\t// in\n    tag_21:\n        /* \"01-NewFeaturesForSolidity8.0/04-Import.sol\":400:416  return a * a * a */\n      swap1\n      pop\n        /* \"01-NewFeaturesForSolidity8.0/04-Import.sol\":340:423  function pow2(uint256 a) public pure returns(uint){... */\n      swap2\n      swap1\n      pop\n      jump\t// out\n        /* \"01-NewFeaturesForSolidity8.0/04-Import.sol\":502:569  function test2() public returns(uint x){... */\n    tag_13:\n        /* \"01-NewFeaturesForSolidity8.0/04-Import.sol\":534:540  uint x */\n      0x00\n        /* \"01-NewFeaturesForSolidity8.0/04-Import.sol\":555:562  POW2(2) */\n      tag_23\n        /* \"01-NewFeaturesForSolidity8.0/04-Import.sol\":560:561  2 */\n      0x02\n        /* \"01-NewFeaturesForSolidity8.0/04-Import.sol\":555:559  POW2 */\n      tag_24\n        /* \"01-NewFeaturesForSolidity8.0/04-Import.sol\":555:562  POW2(2) */\n      jump\t// in\n    tag_23:\n        /* \"01-NewFeaturesForSolidity8.0/04-Import.sol\":551:562  x = POW2(2) */\n      swap1\n      pop\n        /* \"01-NewFeaturesForSolidity8.0/04-Import.sol\":502:569  function test2() public returns(uint x){... */\n      swap1\n      jump\t// out\n        /* \"01-NewFeaturesForSolidity8.0/04-Import.sol\":429:496  function test1() public returns(uint x){... */\n    tag_16:\n        /* \"01-NewFeaturesForSolidity8.0/04-Import.sol\":461:467  uint x */\n      0x00\n        /* \"01-NewFeaturesForSolidity8.0/04-Import.sol\":482:489  pow2(2) */\n      tag_26\n        /* \"01-NewFeaturesForSolidity8.0/04-Import.sol\":487:488  2 */\n      0x02\n        /* \"01-NewFeaturesForSolidity8.0/04-Import.sol\":482:486  pow2 */\n      tag_9\n        /* \"01-NewFeaturesForSolidity8.0/04-Import.sol\":482:489  pow2(2) */\n      jump\t// in\n    tag_26:\n        /* \"01-NewFeaturesForSolidity8.0/04-Import.sol\":478:489  x = pow2(2) */\n      swap1\n      pop\n        /* \"01-NewFeaturesForSolidity8.0/04-Import.sol\":429:496  function test1() public returns(uint x){... */\n      swap1\n      jump\t// out\n        /* \"01-NewFeaturesForSolidity8.0/03-FuncOutsideContract.sol\":129:189  function pow2(uint256 a) returns(uint256){... */\n    tag_24:\n        /* \"01-NewFeaturesForSolidity8.0/03-FuncOutsideContract.sol\":162:169  uint256 */\n      0x00\n        /* \"01-NewFeaturesForSolidity8.0/03-FuncOutsideContract.sol\":185:186  a */\n      dup2\n        /* \"01-NewFeaturesForSolidity8.0/03-FuncOutsideContract.sol\":183:184  a */\n      dup3\n        /* \"01-NewFeaturesForSolidity8.0/03-FuncOutsideContract.sol\":183:186  a*a */\n      tag_28\n      swap2\n      swap1\n      tag_20\n      jump\t// in\n    tag_28:\n        /* \"01-NewFeaturesForSolidity8.0/03-FuncOutsideContract.sol\":176:186  return a*a */\n      swap1\n      pop\n        /* \"01-NewFeaturesForSolidity8.0/03-FuncOutsideContract.sol\":129:189  function pow2(uint256 a) returns(uint256){... */\n      swap2\n      swap1\n      pop\n      jump\t// out\n        /* \"#utility.yul\":88:205   */\n    tag_30:\n        /* \"#utility.yul\":197:198   */\n      0x00\n        /* \"#utility.yul\":194:195   */\n      dup1\n        /* \"#utility.yul\":187:199   */\n      revert\n        /* \"#utility.yul\":334:411   */\n    tag_32:\n        /* \"#utility.yul\":371:378   */\n      0x00\n        /* \"#utility.yul\":400:405   */\n      dup2\n        /* \"#utility.yul\":389:405   */\n      swap1\n      pop\n        /* \"#utility.yul\":334:411   */\n      swap2\n      swap1\n      pop\n      jump\t// out\n        /* \"#utility.yul\":417:539   */\n    tag_33:\n        /* \"#utility.yul\":490:514   */\n      tag_43\n        /* \"#utility.yul\":508:513   */\n      dup2\n        /* \"#utility.yul\":490:514   */\n      tag_32\n      jump\t// in\n    tag_43:\n        /* \"#utility.yul\":483:488   */\n      dup2\n        /* \"#utility.yul\":480:515   */\n      eq\n        /* \"#utility.yul\":470:533   */\n      tag_44\n      jumpi\n        /* \"#utility.yul\":529:530   */\n      0x00\n        /* \"#utility.yul\":526:527   */\n      dup1\n        /* \"#utility.yul\":519:531   */\n      revert\n        /* \"#utility.yul\":470:533   */\n    tag_44:\n        /* \"#utility.yul\":417:539   */\n      pop\n      jump\t// out\n        /* \"#utility.yul\":545:684   */\n    tag_34:\n        /* \"#utility.yul\":591:596   */\n      0x00\n        /* \"#utility.yul\":629:635   */\n      dup2\n        /* \"#utility.yul\":616:636   */\n      calldataload\n        /* \"#utility.yul\":607:636   */\n      swap1\n      pop\n        /* \"#utility.yul\":645:678   */\n      tag_46\n        /* \"#utility.yul\":672:677   */\n      dup2\n        /* \"#utility.yul\":645:678   */\n      tag_33\n      jump\t// in\n    tag_46:\n        /* \"#utility.yul\":545:684   */\n      swap3\n      swap2\n      pop\n      pop\n      jump\t// out\n        /* \"#utility.yul\":690:1019   */\n    tag_8:\n        /* \"#utility.yul\":749:755   */\n      0x00\n        /* \"#utility.yul\":798:800   */\n      0x20\n        /* \"#utility.yul\":786:795   */\n      dup3\n        /* \"#utility.yul\":777:784   */\n      dup5\n        /* \"#utility.yul\":773:796   */\n      sub\n        /* \"#utility.yul\":769:801   */\n      slt\n        /* \"#utility.yul\":766:885   */\n      iszero\n      tag_48\n      jumpi\n        /* \"#utility.yul\":804:883   */\n      tag_49\n      tag_30\n      jump\t// in\n    tag_49:\n        /* \"#utility.yul\":766:885   */\n    tag_48:\n        /* \"#utility.yul\":924:925   */\n      0x00\n        /* \"#utility.yul\":949:1002   */\n      tag_50\n        /* \"#utility.yul\":994:1001   */\n      dup5\n        /* \"#utility.yul\":985:991   */\n      dup3\n        /* \"#utility.yul\":974:983   */\n      dup6\n        /* \"#utility.yul\":970:992   */\n      add\n        /* \"#utility.yul\":949:1002   */\n      tag_34\n      jump\t// in\n    tag_50:\n        /* \"#utility.yul\":939:1002   */\n      swap2\n      pop\n        /* \"#utility.yul\":895:1012   */\n      pop\n        /* \"#utility.yul\":690:1019   */\n      swap3\n      swap2\n      pop\n      pop\n      jump\t// out\n        /* \"#utility.yul\":1025:1143   */\n    tag_35:\n        /* \"#utility.yul\":1112:1136   */\n      tag_52\n        /* \"#utility.yul\":1130:1135   */\n      dup2\n        /* \"#utility.yul\":1112:1136   */\n      tag_32\n      jump\t// in\n    tag_52:\n        /* \"#utility.yul\":1107:1110   */\n      dup3\n        /* \"#utility.yul\":1100:1137   */\n      mstore\n        /* \"#utility.yul\":1025:1143   */\n      pop\n      pop\n      jump\t// out\n        /* \"#utility.yul\":1149:1371   */\n    tag_11:\n        /* \"#utility.yul\":1242:1246   */\n      0x00\n        /* \"#utility.yul\":1280:1282   */\n      0x20\n        /* \"#utility.yul\":1269:1278   */\n      dup3\n        /* \"#utility.yul\":1265:1283   */\n      add\n        /* \"#utility.yul\":1257:1283   */\n      swap1\n      pop\n        /* \"#utility.yul\":1293:1364   */\n      tag_54\n        /* \"#utility.yul\":1361:1362   */\n      0x00\n        /* \"#utility.yul\":1350:1359   */\n      dup4\n        /* \"#utility.yul\":1346:1363   */\n      add\n        /* \"#utility.yul\":1337:1343   */\n      dup5\n        /* \"#utility.yul\":1293:1364   */\n      tag_35\n      jump\t// in\n    tag_54:\n        /* \"#utility.yul\":1149:1371   */\n      swap3\n      swap2\n      pop\n      pop\n      jump\t// out\n        /* \"#utility.yul\":1377:1557   */\n    tag_36:\n        /* \"#utility.yul\":1425:1502   */\n      0x4e487b7100000000000000000000000000000000000000000000000000000000\n        /* \"#utility.yul\":1422:1423   */\n      0x00\n        /* \"#utility.yul\":1415:1503   */\n      mstore\n        /* \"#utility.yul\":1522:1526   */\n      0x11\n        /* \"#utility.yul\":1519:1520   */\n      0x04\n        /* \"#utility.yul\":1512:1527   */\n      mstore\n        /* \"#utility.yul\":1546:1550   */\n      0x24\n        /* \"#utility.yul\":1543:1544   */\n      0x00\n        /* \"#utility.yul\":1536:1551   */\n      revert\n        /* \"#utility.yul\":1563:1973   */\n    tag_20:\n        /* \"#utility.yul\":1603:1610   */\n      0x00\n        /* \"#utility.yul\":1626:1646   */\n      tag_57\n        /* \"#utility.yul\":1644:1645   */\n      dup3\n        /* \"#utility.yul\":1626:1646   */\n      tag_32\n      jump\t// in\n    tag_57:\n        /* \"#utility.yul\":1621:1646   */\n      swap2\n      pop\n        /* \"#utility.yul\":1660:1680   */\n      tag_58\n        /* \"#utility.yul\":1678:1679   */\n      dup4\n        /* \"#utility.yul\":1660:1680   */\n      tag_32\n      jump\t// in\n    tag_58:\n        /* \"#utility.yul\":1655:1680   */\n      swap3\n      pop\n        /* \"#utility.yul\":1715:1716   */\n      dup3\n        /* \"#utility.yul\":1712:1713   */\n      dup3\n        /* \"#utility.yul\":1708:1717   */\n      mul\n        /* \"#utility.yul\":1737:1767   */\n      tag_59\n        /* \"#utility.yul\":1755:1766   */\n      dup2\n        /* \"#utility.yul\":1737:1767   */\n      tag_32\n      jump\t// in\n    tag_59:\n        /* \"#utility.yul\":1726:1767   */\n      swap2\n      pop\n        /* \"#utility.yul\":1916:1917   */\n      dup3\n        /* \"#utility.yul\":1907:1914   */\n      dup3\n        /* \"#utility.yul\":1903:1918   */\n      div\n        /* \"#utility.yul\":1900:1901   */\n      dup5\n        /* \"#utility.yul\":1897:1919   */\n      eq\n        /* \"#utility.yul\":1877:1878   */\n      dup4\n        /* \"#utility.yul\":1870:1879   */\n      iszero\n        /* \"#utility.yul\":1850:1933   */\n      or\n        /* \"#utility.yul\":1827:1966   */\n      tag_60\n      jumpi\n        /* \"#utility.yul\":1946:1964   */\n      tag_61\n      tag_36\n      jump\t// in\n    tag_61:\n        /* \"#utility.yul\":1827:1966   */\n    tag_60:\n        /* \"#utility.yul\":1611:1973   */\n      pop\n        /* \"#utility.yul\":1563:1973   */\n      swap3\n      swap2\n      pop\n      pop\n      jump\t// out\n\n    auxdata: 0xa26469706673582212205228966f5d0098758f7f7a6e19f0f38cacbcd3b26175ed59b1883a647db5165264736f6c63430008180033\n}\n",
				"bytecode": {
					"linkReferences": {},
					"object": "608060405234801561000f575f80fd5b506102308061001d5f395ff3fe608060405234801561000f575f80fd5b506004361061003f575f3560e01c8063442b7ffb1461004357806366e41cb7146100735780636b59084d14610091575b5f80fd5b61005d60048036038101906100589190610139565b6100af565b60405161006a9190610173565b60405180910390f35b61007b6100ce565b6040516100889190610173565b60405180910390f35b6100996100de565b6040516100a69190610173565b60405180910390f35b5f8182836100bd91906101b9565b6100c791906101b9565b9050919050565b5f6100d960026100ee565b905090565b5f6100e960026100af565b905090565b5f81826100fb91906101b9565b9050919050565b5f80fd5b5f819050919050565b61011881610106565b8114610122575f80fd5b50565b5f813590506101338161010f565b92915050565b5f6020828403121561014e5761014d610102565b5b5f61015b84828501610125565b91505092915050565b61016d81610106565b82525050565b5f6020820190506101865f830184610164565b92915050565b7f4e487b71000000000000000000000000000000000000000000000000000000005f52601160045260245ffd5b5f6101c382610106565b91506101ce83610106565b92508282026101dc81610106565b915082820484148315176101f3576101f261018c565b5b509291505056fea26469706673582212205228966f5d0098758f7f7a6e19f0f38cacbcd3b26175ed59b1883a647db5165264736f6c63430008180033",
					"opcodes": "PUSH1 0x80 PUSH1 0x40 MSTORE CALLVALUE DUP1 ISZERO PUSH2 0xF JUMPI PUSH0 DUP1 REVERT JUMPDEST POP PUSH2 0x230 DUP1 PUSH2 0x1D PUSH0 CODECOPY PUSH0 RETURN INVALID PUSH1 0x80 PUSH1 0x40 MSTORE CALLVALUE DUP1 ISZERO PUSH2 0xF JUMPI PUSH0 DUP1 REVERT JUMPDEST POP PUSH1 0x4 CALLDATASIZE LT PUSH2 0x3F JUMPI PUSH0 CALLDATALOAD PUSH1 0xE0 SHR DUP1 PUSH4 0x442B7FFB EQ PUSH2 0x43 JUMPI DUP1 PUSH4 0x66E41CB7 EQ PUSH2 0x73 JUMPI DUP1 PUSH4 0x6B59084D EQ PUSH2 0x91 JUMPI JUMPDEST PUSH0 DUP1 REVERT JUMPDEST PUSH2 0x5D PUSH1 0x4 DUP1 CALLDATASIZE SUB DUP2 ADD SWAP1 PUSH2 0x58 SWAP2 SWAP1 PUSH2 0x139 JUMP JUMPDEST PUSH2 0xAF JUMP JUMPDEST PUSH1 0x40 MLOAD PUSH2 0x6A SWAP2 SWAP1 PUSH2 0x173 JUMP JUMPDEST PUSH1 0x40 MLOAD DUP1 SWAP2 SUB SWAP1 RETURN JUMPDEST PUSH2 0x7B PUSH2 0xCE JUMP JUMPDEST PUSH1 0x40 MLOAD PUSH2 0x88 SWAP2 SWAP1 PUSH2 0x173 JUMP JUMPDEST PUSH1 0x40 MLOAD DUP1 SWAP2 SUB SWAP1 RETURN JUMPDEST PUSH2 0x99 PUSH2 0xDE JUMP JUMPDEST PUSH1 0x40 MLOAD PUSH2 0xA6 SWAP2 SWAP1 PUSH2 0x173 JUMP JUMPDEST PUSH1 0x40 MLOAD DUP1 SWAP2 SUB SWAP1 RETURN JUMPDEST PUSH0 DUP2 DUP3 DUP4 PUSH2 0xBD SWAP2 SWAP1 PUSH2 0x1B9 JUMP JUMPDEST PUSH2 0xC7 SWAP2 SWAP1 PUSH2 0x1B9 JUMP JUMPDEST SWAP1 POP SWAP2 SWAP1 POP JUMP JUMPDEST PUSH0 PUSH2 0xD9 PUSH1 0x2 PUSH2 0xEE JUMP JUMPDEST SWAP1 POP SWAP1 JUMP JUMPDEST PUSH0 PUSH2 0xE9 PUSH1 0x2 PUSH2 0xAF JUMP JUMPDEST SWAP1 POP SWAP1 JUMP JUMPDEST PUSH0 DUP2 DUP3 PUSH2 0xFB SWAP2 SWAP1 PUSH2 0x1B9 JUMP JUMPDEST SWAP1 POP SWAP2 SWAP1 POP JUMP JUMPDEST PUSH0 DUP1 REVERT JUMPDEST PUSH0 DUP2 SWAP1 POP SWAP2 SWAP1 POP JUMP JUMPDEST PUSH2 0x118 DUP2 PUSH2 0x106 JUMP JUMPDEST DUP2 EQ PUSH2 0x122 JUMPI PUSH0 DUP1 REVERT JUMPDEST POP JUMP JUMPDEST PUSH0 DUP2 CALLDATALOAD SWAP1 POP PUSH2 0x133 DUP2 PUSH2 0x10F JUMP JUMPDEST SWAP3 SWAP2 POP POP JUMP JUMPDEST PUSH0 PUSH1 0x20 DUP3 DUP5 SUB SLT ISZERO PUSH2 0x14E JUMPI PUSH2 0x14D PUSH2 0x102 JUMP JUMPDEST JUMPDEST PUSH0 PUSH2 0x15B DUP5 DUP3 DUP6 ADD PUSH2 0x125 JUMP JUMPDEST SWAP2 POP POP SWAP3 SWAP2 POP POP JUMP JUMPDEST PUSH2 0x16D DUP2 PUSH2 0x106 JUMP JUMPDEST DUP3 MSTORE POP POP JUMP JUMPDEST PUSH0 PUSH1 0x20 DUP3 ADD SWAP1 POP PUSH2 0x186 PUSH0 DUP4 ADD DUP5 PUSH2 0x164 JUMP JUMPDEST SWAP3 SWAP2 POP POP JUMP JUMPDEST PUSH32 0x4E487B7100000000000000000000000000000000000000000000000000000000 PUSH0 MSTORE PUSH1 0x11 PUSH1 0x4 MSTORE PUSH1 0x24 PUSH0 REVERT JUMPDEST PUSH0 PUSH2 0x1C3 DUP3 PUSH2 0x106 JUMP JUMPDEST SWAP2 POP PUSH2 0x1CE DUP4 PUSH2 0x106 JUMP JUMPDEST SWAP3 POP DUP3 DUP3 MUL PUSH2 0x1DC DUP2 PUSH2 0x106 JUMP JUMPDEST SWAP2 POP DUP3 DUP3 DIV DUP5 EQ DUP4 ISZERO OR PUSH2 0x1F3 JUMPI PUSH2 0x1F2 PUSH2 0x18C JUMP JUMPDEST JUMPDEST POP SWAP3 SWAP2 POP POP JUMP INVALID LOG2 PUSH5 0x6970667358 0x22 SLT KECCAK256 MSTORE 0x28 SWAP7 PUSH16 0x5D0098758F7F7A6E19F0F38CACBCD3B2 PUSH2 0x75ED MSIZE 0xB1 DUP9 GASPRICE PUSH5 0x7DB5165264 PUSH20 0x6F6C634300081800330000000000000000000000 "
				},
				"gasEstimates": {
					"creation": {
						"codeDepositCost": "112000",
						"executionCost": "157",
						"totalCost": "112157"
					},
					"external": {
						"pow2(uint256)": "infinite",
						"test1()": "infinite",
						"test2()": "infinite"
					}
				},
				"methodIdentifiers": {
					"pow2(uint256)": "442b7ffb",
					"test1()": "6b59084d",
					"test2()": "66e41cb7"
				}
			},
			"storageLayout": {
				"storage": [],
				"types": null
			},
			"userdoc": {
				"kind": "user",
				"methods": {},
				"version": 1
			}
		}
	}
}